{
  "_format": "hh3-artifact-1",
  "contractName": "AcademicRecordStorage",
  "sourceName": "contracts/AcademicRecordStorage.sol",
  "abi": [
    {
      "inputs": [],
      "stateMutability": "nonpayable",
      "type": "constructor"
    },
    {
      "inputs": [
        {
          "internalType": "address",
          "name": "owner",
          "type": "address"
        }
      ],
      "name": "OwnableInvalidOwner",
      "type": "error"
    },
    {
      "inputs": [
        {
          "internalType": "address",
          "name": "account",
          "type": "address"
        }
      ],
      "name": "OwnableUnauthorizedAccount",
      "type": "error"
    },
    {
      "anonymous": false,
      "inputs": [
        {
          "indexed": true,
          "internalType": "bytes32",
          "name": "recordId",
          "type": "bytes32"
        },
        {
          "indexed": true,
          "internalType": "address",
          "name": "student",
          "type": "address"
        },
        {
          "indexed": true,
          "internalType": "address",
          "name": "visitorAddress",
          "type": "address"
        }
      ],
      "name": "AccessGranted",
      "type": "event"
    },
    {
      "anonymous": false,
      "inputs": [
        {
          "indexed": true,
          "internalType": "bytes32",
          "name": "recordId",
          "type": "bytes32"
        },
        {
          "indexed": true,
          "internalType": "address",
          "name": "student",
          "type": "address"
        },
        {
          "indexed": true,
          "internalType": "address",
          "name": "visitorAddress",
          "type": "address"
        }
      ],
      "name": "AccessRevoked",
      "type": "event"
    },
    {
      "anonymous": false,
      "inputs": [
        {
          "indexed": true,
          "internalType": "address",
          "name": "previousOwner",
          "type": "address"
        },
        {
          "indexed": true,
          "internalType": "address",
          "name": "newOwner",
          "type": "address"
        }
      ],
      "name": "OwnershipTransferred",
      "type": "event"
    },
    {
      "anonymous": false,
      "inputs": [
        {
          "indexed": true,
          "internalType": "bytes32",
          "name": "recordId",
          "type": "bytes32"
        },
        {
          "indexed": true,
          "internalType": "address",
          "name": "student",
          "type": "address"
        },
        {
          "indexed": true,
          "internalType": "address",
          "name": "institution",
          "type": "address"
        },
        {
          "indexed": false,
          "internalType": "uint256",
          "name": "timestamp",
          "type": "uint256"
        }
      ],
      "name": "RecordRegistered",
      "type": "event"
    },
    {
      "inputs": [
        {
          "internalType": "address",
          "name": "_institution",
          "type": "address"
        }
      ],
      "name": "addInstitution",
      "outputs": [],
      "stateMutability": "nonpayable",
      "type": "function"
    },
    {
      "inputs": [
        {
          "internalType": "bytes32",
          "name": "_recordId",
          "type": "bytes32"
        }
      ],
      "name": "getRecord",
      "outputs": [
        {
          "components": [
            {
              "internalType": "bytes32",
              "name": "recordId",
              "type": "bytes32"
            },
            {
              "internalType": "address",
              "name": "student",
              "type": "address"
            },
            {
              "internalType": "address",
              "name": "institution",
              "type": "address"
            },
            {
              "internalType": "bytes",
              "name": "encryptedData",
              "type": "bytes"
            },
            {
              "internalType": "bytes",
              "name": "encryptedKeyInstitution",
              "type": "bytes"
            },
            {
              "internalType": "bytes",
              "name": "encryptedKeyStudent",
              "type": "bytes"
            },
            {
              "internalType": "bytes",
              "name": "signature",
              "type": "bytes"
            },
            {
              "internalType": "uint256",
              "name": "timestamp",
              "type": "uint256"
            }
          ],
          "internalType": "struct AcademicRecordStorage.Record",
          "name": "",
          "type": "tuple"
        }
      ],
      "stateMutability": "view",
      "type": "function"
    },
    {
      "inputs": [
        {
          "internalType": "bytes32",
          "name": "_recordId",
          "type": "bytes32"
        },
        {
          "internalType": "address",
          "name": "_visitorAddress",
          "type": "address"
        },
        {
          "internalType": "bytes",
          "name": "_encryptedKeyVisitor",
          "type": "bytes"
        }
      ],
      "name": "grantVisitorAccess",
      "outputs": [],
      "stateMutability": "nonpayable",
      "type": "function"
    },
    {
      "inputs": [
        {
          "internalType": "address",
          "name": "",
          "type": "address"
        }
      ],
      "name": "isInstitution",
      "outputs": [
        {
          "internalType": "bool",
          "name": "",
          "type": "bool"
        }
      ],
      "stateMutability": "view",
      "type": "function"
    },
    {
      "inputs": [],
      "name": "owner",
      "outputs": [
        {
          "internalType": "address",
          "name": "",
          "type": "address"
        }
      ],
      "stateMutability": "view",
      "type": "function"
    },
    {
      "inputs": [
        {
          "internalType": "bytes32",
          "name": "",
          "type": "bytes32"
        }
      ],
      "name": "records",
      "outputs": [
        {
          "internalType": "bytes32",
          "name": "recordId",
          "type": "bytes32"
        },
        {
          "internalType": "address",
          "name": "student",
          "type": "address"
        },
        {
          "internalType": "address",
          "name": "institution",
          "type": "address"
        },
        {
          "internalType": "bytes",
          "name": "encryptedData",
          "type": "bytes"
        },
        {
          "internalType": "bytes",
          "name": "encryptedKeyInstitution",
          "type": "bytes"
        },
        {
          "internalType": "bytes",
          "name": "encryptedKeyStudent",
          "type": "bytes"
        },
        {
          "internalType": "bytes",
          "name": "signature",
          "type": "bytes"
        },
        {
          "internalType": "uint256",
          "name": "timestamp",
          "type": "uint256"
        }
      ],
      "stateMutability": "view",
      "type": "function"
    },
    {
      "inputs": [
        {
          "internalType": "bytes32[]",
          "name": "_recordIds",
          "type": "bytes32[]"
        },
        {
          "internalType": "address[]",
          "name": "_studentes",
          "type": "address[]"
        },
        {
          "internalType": "bytes[]",
          "name": "_encryptedData",
          "type": "bytes[]"
        },
        {
          "internalType": "bytes[]",
          "name": "_encryptedKeyInstitution",
          "type": "bytes[]"
        },
        {
          "internalType": "bytes[]",
          "name": "_encryptedKeyStudent",
          "type": "bytes[]"
        },
        {
          "internalType": "bytes[]",
          "name": "_signatures",
          "type": "bytes[]"
        }
      ],
      "name": "registerBatchRecords",
      "outputs": [],
      "stateMutability": "nonpayable",
      "type": "function"
    },
    {
      "inputs": [
        {
          "internalType": "address",
          "name": "_institution",
          "type": "address"
        }
      ],
      "name": "removeInstitution",
      "outputs": [],
      "stateMutability": "nonpayable",
      "type": "function"
    },
    {
      "inputs": [],
      "name": "renounceOwnership",
      "outputs": [],
      "stateMutability": "nonpayable",
      "type": "function"
    },
    {
      "inputs": [
        {
          "internalType": "bytes32",
          "name": "_recordId",
          "type": "bytes32"
        },
        {
          "internalType": "address",
          "name": "_visitorAddress",
          "type": "address"
        }
      ],
      "name": "revokeVisitorAccess",
      "outputs": [],
      "stateMutability": "nonpayable",
      "type": "function"
    },
    {
      "inputs": [
        {
          "internalType": "address",
          "name": "newOwner",
          "type": "address"
        }
      ],
      "name": "transferOwnership",
      "outputs": [],
      "stateMutability": "nonpayable",
      "type": "function"
    },
    {
      "inputs": [
        {
          "internalType": "bytes32",
          "name": "",
          "type": "bytes32"
        },
        {
          "internalType": "address",
          "name": "",
          "type": "address"
        }
      ],
      "name": "visitorAccessKeys",
      "outputs": [
        {
          "internalType": "bytes",
          "name": "",
          "type": "bytes"
        }
      ],
      "stateMutability": "view",
      "type": "function"
    }
  ],
  "bytecode": "0x6080604052348015600e575f5ffd5b503380603357604051631e4fbdf760e01b81525f600482015260240160405180910390fd5b603a81603f565b50608e565b5f80546001600160a01b038381166001600160a01b0319831681178455604051919092169283917f8be0079c531659141344cd1fd0a4f28419497f9722a3daafe3b4186f6b6457e09190a35050565b6118eb8061009b5f395ff3fe608060405234801561000f575f5ffd5b50600436106100b1575f3560e01c80638747d5ed1161006e5780638747d5ed146101745780638da5cb5b14610187578063a1a7590c146101a1578063af5b2291146101b4578063dd6e2e68146101c7578063f2fde38b146101da575f5ffd5b806301e64725146100b55780630331df07146100e5578063213681cd146101175780632feeb6c714610137578063715018a61461015757806379340f8314610161575b5f5ffd5b6100c86100c33660046111ba565b6101ed565b6040516100dc9897969594939291906111ff565b60405180910390f35b6101076100f336600461129c565b60036020525f908152604090205460ff1681565b60405190151581526020016100dc565b61012a6101253660046111ba565b610453565b6040516100dc91906112bc565b61014a610145366004611384565b6107a4565b6040516100dc91906113ae565b61015f610846565b005b61015f61016f366004611408565b610859565b61015f61018236600461129c565b610d46565b5f546040516001600160a01b0390911681526020016100dc565b61015f6101af36600461153e565b610d94565b61015f6101c236600461129c565b610eec565b61015f6101d5366004611384565b610f3d565b61015f6101e836600461129c565b6110b8565b600160208190525f918252604090912080549181015460028201546003830180546001600160a01b03938416949290931692610228906115c1565b80601f0160208091040260200160405190810160405280929190818152602001828054610254906115c1565b801561029f5780601f106102765761010080835404028352916020019161029f565b820191905f5260205f20905b81548152906001019060200180831161028257829003601f168201915b5050505050908060040180546102b4906115c1565b80601f01602080910402602001604051908101604052809291908181526020018280546102e0906115c1565b801561032b5780601f106103025761010080835404028352916020019161032b565b820191905f5260205f20905b81548152906001019060200180831161030e57829003601f168201915b505050505090806005018054610340906115c1565b80601f016020809104026020016040519081016040528092919081815260200182805461036c906115c1565b80156103b75780601f1061038e576101008083540402835291602001916103b7565b820191905f5260205f20905b81548152906001019060200180831161039a57829003601f168201915b5050505050908060060180546103cc906115c1565b80601f01602080910402602001604051908101604052809291908181526020018280546103f8906115c1565b80156104435780601f1061041a57610100808354040283529160200191610443565b820191905f5260205f20905b81548152906001019060200180831161042657829003601f168201915b5050505050908060070154905088565b6104a96040518061010001604052805f81526020015f6001600160a01b031681526020015f6001600160a01b03168152602001606081526020016060815260200160608152602001606081526020015f81525090565b5f82815260016020819052604090912001546001600160a01b03166105085760405162461bcd60e51b815260206004820152601060248201526f149958dbdc99081b9bdd08199bdd5b9960821b60448201526064015b60405180910390fd5b5f8281526001602081815260409283902083516101008101855281548152928101546001600160a01b0390811692840192909252600281015490911692820192909252600382018054919291606084019190610563906115c1565b80601f016020809104026020016040519081016040528092919081815260200182805461058f906115c1565b80156105da5780601f106105b1576101008083540402835291602001916105da565b820191905f5260205f20905b8154815290600101906020018083116105bd57829003601f168201915b505050505081526020016004820180546105f3906115c1565b80601f016020809104026020016040519081016040528092919081815260200182805461061f906115c1565b801561066a5780601f106106415761010080835404028352916020019161066a565b820191905f5260205f20905b81548152906001019060200180831161064d57829003601f168201915b50505050508152602001600582018054610683906115c1565b80601f01602080910402602001604051908101604052809291908181526020018280546106af906115c1565b80156106fa5780601f106106d1576101008083540402835291602001916106fa565b820191905f5260205f20905b8154815290600101906020018083116106dd57829003601f168201915b50505050508152602001600682018054610713906115c1565b80601f016020809104026020016040519081016040528092919081815260200182805461073f906115c1565b801561078a5780601f106107615761010080835404028352916020019161078a565b820191905f5260205f20905b81548152906001019060200180831161076d57829003601f168201915b505050505081526020016007820154815250509050919050565b600260209081525f9283526040808420909152908252902080546107c7906115c1565b80601f01602080910402602001604051908101604052809291908181526020018280546107f3906115c1565b801561083e5780601f106108155761010080835404028352916020019161083e565b820191905f5260205f20905b81548152906001019060200180831161082157829003601f168201915b505050505081565b61084e6110f5565b6108575f611121565b565b335f9081526003602052604090205460ff166108c65760405162461bcd60e51b815260206004820152602660248201527f43616c6c6572206973206e6f7420616e206175746f72697a656420696e7374696044820152653a3aba34b7b760d11b60648201526084016104ff565b8a891480156108d457508a87145b80156108df57508a85145b80156108ea57508a83145b80156108f557508a81145b61093a5760405162461bcd60e51b8152602060048201526016602482015275082e4e4c2f240d8cadccee8d0e640dad2e6dac2e8c6d60531b60448201526064016104ff565b8a6109805760405162461bcd60e51b81526020600482015260166024820152752737903932b1b7b93239903a37903932b3b4b9ba32b960511b60448201526064016104ff565b5f5b8b811015610d37575f8d8d8381811061099d5761099d6115f9565b9050602002013590505f8c8c848181106109b9576109b96115f9565b90506020020160208101906109ce919061129c565b5f83815260016020819052604090912001549091506001600160a01b031615610a395760405162461bcd60e51b815260206004820152601860248201527f5265636f726420494420616c726561647920657869737473000000000000000060448201526064016104ff565b6001600160a01b038116610a8f5760405162461bcd60e51b815260206004820152601e60248201527f53747564656e7420616464726573732063616e6e6f74206265207a65726f000060448201526064016104ff565b604051806101000160405280838152602001826001600160a01b03168152602001336001600160a01b031681526020018c8c86818110610ad157610ad16115f9565b9050602002810190610ae3919061160d565b8080601f0160208091040260200160405190810160405280939291908181526020018383808284375f920191909152505050908252506020018a8a86818110610b2e57610b2e6115f9565b9050602002810190610b40919061160d565b8080601f0160208091040260200160405190810160405280939291908181526020018383808284375f92019190915250505090825250602001888886818110610b8b57610b8b6115f9565b9050602002810190610b9d919061160d565b8080601f0160208091040260200160405190810160405280939291908181526020018383808284375f92019190915250505090825250602001868686818110610be857610be86115f9565b9050602002810190610bfa919061160d565b8080601f0160208091040260200160405190810160405280939291908181526020018383808284375f920182905250938552505042602093840152508481526001808352604091829020845181559284015190830180546001600160a01b03199081166001600160a01b039384161790915591840151600284018054909316911617905560608201516003820190610c9290826116b0565b5060808201516004820190610ca790826116b0565b5060a08201516005820190610cbc90826116b0565b5060c08201516006820190610cd190826116b0565b5060e08201518160070155905050336001600160a01b0316816001600160a01b0316837f0bc83de6d7d14fa770a6af0ead38bb0bc00a5d7a19cb23facf7a572cc587a37242604051610d2591815260200190565b60405180910390a45050600101610982565b50505050505050505050505050565b610d4e6110f5565b6001600160a01b038116610d745760405162461bcd60e51b81526004016104ff9061176b565b6001600160a01b03165f908152600360205260409020805460ff19169055565b5f84815260016020819052604090912001546001600160a01b03163314610dcd5760405162461bcd60e51b81526004016104ff906117ad565b6001600160a01b038316610e235760405162461bcd60e51b815260206004820152601e60248201527f56697369746f7220616464726573732063616e6e6f74206265207a65726f000060448201526064016104ff565b80610e825760405162461bcd60e51b815260206004820152602960248201527f456e63727970746564206b657920666f722076697369746f722063616e6e6f7460448201526820626520656d70747960b81b60648201526084016104ff565b5f8481526002602090815260408083206001600160a01b03871684529091529020610eae8284836117fb565b506040516001600160a01b03841690339086907f7aeffe35f64b55a7c424c5fccc3fba0f3ac4ebd764cc737855b8734834458f2b905f90a450505050565b610ef46110f5565b6001600160a01b038116610f1a5760405162461bcd60e51b81526004016104ff9061176b565b6001600160a01b03165f908152600360205260409020805460ff19166001179055565b5f82815260016020819052604090912001546001600160a01b03163314610f765760405162461bcd60e51b81526004016104ff906117ad565b6001600160a01b038116610fcc5760405162461bcd60e51b815260206004820152601e60248201527f56697369746f7220616464726573732063616e6e6f74206265207a65726f000060448201526064016104ff565b5f8281526002602090815260408083206001600160a01b038516845290915281208054610ff8906115c1565b9050116110535760405162461bcd60e51b815260206004820152602360248201527f56697369746f7220646f6573206e6f742068617665206163746976652061636360448201526265737360e81b60648201526084016104ff565b5f8281526002602090815260408083206001600160a01b0385168452909152812061107d91611170565b6040516001600160a01b03821690339084907ffab19bdeacf1ea13315b1da3f79a3403fe4f16793b6a03eeff9e0bbbea24fe5f905f90a45050565b6110c06110f5565b6001600160a01b0381166110e957604051631e4fbdf760e01b81525f60048201526024016104ff565b6110f281611121565b50565b5f546001600160a01b031633146108575760405163118cdaa760e01b81523360048201526024016104ff565b5f80546001600160a01b038381166001600160a01b0319831681178455604051919092169283917f8be0079c531659141344cd1fd0a4f28419497f9722a3daafe3b4186f6b6457e09190a35050565b50805461117c906115c1565b5f825580601f1061118b575050565b601f0160209004905f5260205f20908101906110f291905b808211156111b6575f81556001016111a3565b5090565b5f602082840312156111ca575f5ffd5b5035919050565b5f81518084528060208401602086015e5f602082860101526020601f19601f83011685010191505092915050565b8881526001600160a01b03888116602083015287166040820152610100606082018190525f90611231908301886111d1565b828103608084015261124381886111d1565b905082810360a084015261125781876111d1565b905082810360c084015261126b81866111d1565b9150508260e08301529998505050505050505050565b80356001600160a01b0381168114611297575f5ffd5b919050565b5f602082840312156112ac575f5ffd5b6112b582611281565b9392505050565b60208152815160208201525f60208301516112e260408401826001600160a01b03169052565b5060408301516001600160a01b038116606084015250606083015161010060808401526113136101208401826111d1565b90506080840151601f198483030160a085015261133082826111d1565b91505060a0840151601f198483030160c085015261134e82826111d1565b91505060c0840151601f198483030160e085015261136c82826111d1565b91505060e08401516101008401528091505092915050565b5f5f60408385031215611395575f5ffd5b823591506113a560208401611281565b90509250929050565b602081525f6112b560208301846111d1565b5f5f83601f8401126113d0575f5ffd5b50813567ffffffffffffffff8111156113e7575f5ffd5b6020830191508360208260051b8501011115611401575f5ffd5b9250929050565b5f5f5f5f5f5f5f5f5f5f5f5f60c08d8f031215611423575f5ffd5b67ffffffffffffffff8d351115611438575f5ffd5b6114458e8e358f016113c0565b909c509a5067ffffffffffffffff60208e01351115611462575f5ffd5b6114728e60208f01358f016113c0565b909a50985067ffffffffffffffff60408e0135111561148f575f5ffd5b61149f8e60408f01358f016113c0565b909850965067ffffffffffffffff60608e013511156114bc575f5ffd5b6114cc8e60608f01358f016113c0565b909650945067ffffffffffffffff60808e013511156114e9575f5ffd5b6114f98e60808f01358f016113c0565b909450925067ffffffffffffffff60a08e01351115611516575f5ffd5b6115268e60a08f01358f016113c0565b81935080925050509295989b509295989b509295989b565b5f5f5f5f60608587031215611551575f5ffd5b8435935061156160208601611281565b9250604085013567ffffffffffffffff81111561157c575f5ffd5b8501601f8101871361158c575f5ffd5b803567ffffffffffffffff8111156115a2575f5ffd5b8760208284010111156115b3575f5ffd5b949793965060200194505050565b600181811c908216806115d557607f821691505b6020821081036115f357634e487b7160e01b5f52602260045260245ffd5b50919050565b634e487b7160e01b5f52603260045260245ffd5b5f5f8335601e19843603018112611622575f5ffd5b83018035915067ffffffffffffffff82111561163c575f5ffd5b602001915036819003821315611401575f5ffd5b634e487b7160e01b5f52604160045260245ffd5b601f8211156116ab57805f5260205f20601f840160051c810160208510156116895750805b601f840160051c820191505b818110156116a8575f8155600101611695565b50505b505050565b815167ffffffffffffffff8111156116ca576116ca611650565b6116de816116d884546115c1565b84611664565b6020601f821160018114611710575f83156116f95750848201515b5f19600385901b1c1916600184901b1784556116a8565b5f84815260208120601f198516915b8281101561173f578785015182556020948501946001909201910161171f565b508482101561175c57868401515f19600387901b60f8161c191681555b50505050600190811b01905550565b60208082526022908201527f496e737469747574696f6e20616464726573732063616e6e6f74206265207a65604082015261726f60f01b606082015260800190565b6020808252602e908201527f43616c6c6572206973206e6f74207468652073747564656e74206f776e65722060408201526d1bd9881d1a1a5cc81c9958dbdc9960921b606082015260800190565b67ffffffffffffffff83111561181357611813611650565b6118278361182183546115c1565b83611664565b5f601f841160018114611858575f85156118415750838201355b5f19600387901b1c1916600186901b1783556116a8565b5f83815260208120601f198716915b828110156118875786850135825560209485019460019092019101611867565b50868210156118a3575f1960f88860031b161c19848701351681555b505060018560011b018355505050505056fea2646970667358221220dea68cf7bf0773aa1ab7c2a98c840bc9c2220a260868e455b32297d0efbd1eef64736f6c634300081c0033",
  "linkReferences": {},
  "deployedLinkReferences": {},
  "immutableReferences": {},
  "inputSourceName": "project/contracts/AcademicRecordStorage.sol",
  "buildInfoId": "solc-0_8_28-650fd02a0749fbc06f54e4b24843b14c73428239"
}