{
  "_format": "hh3-artifact-1",
  "contractName": "AcademicRecordStorage",
  "sourceName": "contracts/AcademicRecordStorage.sol",
  "abi": [
    {
      "inputs": [],
      "stateMutability": "nonpayable",
      "type": "constructor"
    },
    {
      "inputs": [
        {
          "internalType": "address",
          "name": "owner",
          "type": "address"
        }
      ],
      "name": "OwnableInvalidOwner",
      "type": "error"
    },
    {
      "inputs": [
        {
          "internalType": "address",
          "name": "account",
          "type": "address"
        }
      ],
      "name": "OwnableUnauthorizedAccount",
      "type": "error"
    },
    {
      "anonymous": false,
      "inputs": [
        {
          "indexed": true,
          "internalType": "bytes32",
          "name": "recordId",
          "type": "bytes32"
        },
        {
          "indexed": true,
          "internalType": "address",
          "name": "student",
          "type": "address"
        },
        {
          "indexed": true,
          "internalType": "address",
          "name": "visitorAddress",
          "type": "address"
        }
      ],
      "name": "AccessGranted",
      "type": "event"
    },
    {
      "anonymous": false,
      "inputs": [
        {
          "indexed": true,
          "internalType": "bytes32",
          "name": "recordId",
          "type": "bytes32"
        },
        {
          "indexed": true,
          "internalType": "address",
          "name": "student",
          "type": "address"
        },
        {
          "indexed": true,
          "internalType": "address",
          "name": "visitorAddress",
          "type": "address"
        }
      ],
      "name": "AccessRevoked",
      "type": "event"
    },
    {
      "anonymous": false,
      "inputs": [
        {
          "indexed": true,
          "internalType": "address",
          "name": "previousOwner",
          "type": "address"
        },
        {
          "indexed": true,
          "internalType": "address",
          "name": "newOwner",
          "type": "address"
        }
      ],
      "name": "OwnershipTransferred",
      "type": "event"
    },
    {
      "anonymous": false,
      "inputs": [
        {
          "indexed": true,
          "internalType": "bytes32",
          "name": "recordId",
          "type": "bytes32"
        },
        {
          "indexed": true,
          "internalType": "address",
          "name": "student",
          "type": "address"
        },
        {
          "indexed": true,
          "internalType": "address",
          "name": "institution",
          "type": "address"
        },
        {
          "indexed": false,
          "internalType": "uint256",
          "name": "timestamp",
          "type": "uint256"
        }
      ],
      "name": "RecordRegistered",
      "type": "event"
    },
    {
      "stateMutability": "payable",
      "type": "fallback"
    },
    {
      "inputs": [
        {
          "internalType": "address",
          "name": "_institution",
          "type": "address"
        }
      ],
      "name": "addInstitution",
      "outputs": [],
      "stateMutability": "nonpayable",
      "type": "function"
    },
    {
      "inputs": [
        {
          "internalType": "bytes32",
          "name": "_recordId",
          "type": "bytes32"
        }
      ],
      "name": "getRecord",
      "outputs": [
        {
          "components": [
            {
              "internalType": "bytes32",
              "name": "recordId",
              "type": "bytes32"
            },
            {
              "internalType": "address",
              "name": "student",
              "type": "address"
            },
            {
              "internalType": "address",
              "name": "institution",
              "type": "address"
            },
            {
              "internalType": "bytes",
              "name": "encryptedData",
              "type": "bytes"
            },
            {
              "internalType": "bytes",
              "name": "encryptedKeyInstitution",
              "type": "bytes"
            },
            {
              "internalType": "bytes",
              "name": "encryptedKeyStudent",
              "type": "bytes"
            },
            {
              "internalType": "bytes",
              "name": "signature",
              "type": "bytes"
            },
            {
              "internalType": "uint256",
              "name": "timestamp",
              "type": "uint256"
            }
          ],
          "internalType": "struct AcademicRecordStorage.Record",
          "name": "",
          "type": "tuple"
        }
      ],
      "stateMutability": "view",
      "type": "function"
    },
    {
      "inputs": [
        {
          "internalType": "bytes32",
          "name": "_recordId",
          "type": "bytes32"
        },
        {
          "internalType": "address",
          "name": "_visitorAddress",
          "type": "address"
        },
        {
          "internalType": "bytes",
          "name": "_encryptedKeyVisitor",
          "type": "bytes"
        }
      ],
      "name": "grantVisitorAccess",
      "outputs": [],
      "stateMutability": "nonpayable",
      "type": "function"
    },
    {
      "inputs": [
        {
          "internalType": "address",
          "name": "",
          "type": "address"
        }
      ],
      "name": "isInstitution",
      "outputs": [
        {
          "internalType": "bool",
          "name": "",
          "type": "bool"
        }
      ],
      "stateMutability": "view",
      "type": "function"
    },
    {
      "inputs": [],
      "name": "owner",
      "outputs": [
        {
          "internalType": "address",
          "name": "",
          "type": "address"
        }
      ],
      "stateMutability": "view",
      "type": "function"
    },
    {
      "inputs": [
        {
          "internalType": "bytes32",
          "name": "",
          "type": "bytes32"
        }
      ],
      "name": "records",
      "outputs": [
        {
          "internalType": "bytes32",
          "name": "recordId",
          "type": "bytes32"
        },
        {
          "internalType": "address",
          "name": "student",
          "type": "address"
        },
        {
          "internalType": "address",
          "name": "institution",
          "type": "address"
        },
        {
          "internalType": "bytes",
          "name": "encryptedData",
          "type": "bytes"
        },
        {
          "internalType": "bytes",
          "name": "encryptedKeyInstitution",
          "type": "bytes"
        },
        {
          "internalType": "bytes",
          "name": "encryptedKeyStudent",
          "type": "bytes"
        },
        {
          "internalType": "bytes",
          "name": "signature",
          "type": "bytes"
        },
        {
          "internalType": "uint256",
          "name": "timestamp",
          "type": "uint256"
        }
      ],
      "stateMutability": "view",
      "type": "function"
    },
    {
      "inputs": [
        {
          "internalType": "bytes32[]",
          "name": "_recordIds",
          "type": "bytes32[]"
        },
        {
          "internalType": "address[]",
          "name": "_studentes",
          "type": "address[]"
        },
        {
          "internalType": "bytes[]",
          "name": "_encryptedData",
          "type": "bytes[]"
        },
        {
          "internalType": "bytes[]",
          "name": "_encryptedKeyInstitution",
          "type": "bytes[]"
        },
        {
          "internalType": "bytes[]",
          "name": "_encryptedKeyStudent",
          "type": "bytes[]"
        },
        {
          "internalType": "bytes[]",
          "name": "_signatures",
          "type": "bytes[]"
        }
      ],
      "name": "registerBatchRecords",
      "outputs": [],
      "stateMutability": "nonpayable",
      "type": "function"
    },
    {
      "inputs": [
        {
          "internalType": "address",
          "name": "_institution",
          "type": "address"
        }
      ],
      "name": "removeInstitution",
      "outputs": [],
      "stateMutability": "nonpayable",
      "type": "function"
    },
    {
      "inputs": [],
      "name": "renounceOwnership",
      "outputs": [],
      "stateMutability": "nonpayable",
      "type": "function"
    },
    {
      "inputs": [
        {
          "internalType": "bytes32",
          "name": "_recordId",
          "type": "bytes32"
        },
        {
          "internalType": "address",
          "name": "_visitorAddress",
          "type": "address"
        }
      ],
      "name": "revokeVisitorAccess",
      "outputs": [],
      "stateMutability": "nonpayable",
      "type": "function"
    },
    {
      "inputs": [
        {
          "internalType": "address",
          "name": "newOwner",
          "type": "address"
        }
      ],
      "name": "transferOwnership",
      "outputs": [],
      "stateMutability": "nonpayable",
      "type": "function"
    },
    {
      "inputs": [
        {
          "internalType": "bytes32",
          "name": "",
          "type": "bytes32"
        },
        {
          "internalType": "address",
          "name": "",
          "type": "address"
        }
      ],
      "name": "visitorAccessKeys",
      "outputs": [
        {
          "internalType": "bytes",
          "name": "",
          "type": "bytes"
        }
      ],
      "stateMutability": "view",
      "type": "function"
    },
    {
      "stateMutability": "payable",
      "type": "receive"
    }
  ],
  "bytecode": "0x6080604052348015600e575f5ffd5b503380603357604051631e4fbdf760e01b81525f600482015260240160405180910390fd5b603a81603f565b50608e565b5f80546001600160a01b038381166001600160a01b0319831681178455604051919092169283917f8be0079c531659141344cd1fd0a4f28419497f9722a3daafe3b4186f6b6457e09190a35050565b611aa68061009b5f395ff3fe6080604052600436106100a3575f3560e01c80638747d5ed116100605780638747d5ed146101aa5780638da5cb5b146101c9578063a1a7590c146101ef578063af5b22911461020e578063dd6e2e681461022d578063f2fde38b1461024c57005b806301e64725146100a55780630331df07146100e1578063213681cd1461011f5780632feeb6c71461014b578063715018a61461017757806379340f831461018b575b005b3480156100b0575f5ffd5b506100c46100bf366004611375565b61026b565b6040516100d89897969594939291906113ba565b60405180910390f35b3480156100ec575f5ffd5b5061010f6100fb366004611457565b60036020525f908152604090205460ff1681565b60405190151581526020016100d8565b34801561012a575f5ffd5b5061013e610139366004611375565b6104d1565b6040516100d89190611477565b348015610156575f5ffd5b5061016a61016536600461153f565b610822565b6040516100d89190611569565b348015610182575f5ffd5b506100a36108c4565b348015610196575f5ffd5b506100a36101a53660046115c3565b6108d7565b3480156101b5575f5ffd5b506100a36101c4366004611457565b610f01565b3480156101d4575f5ffd5b505f546040516001600160a01b0390911681526020016100d8565b3480156101fa575f5ffd5b506100a36102093660046116f9565b610f4f565b348015610219575f5ffd5b506100a3610228366004611457565b6110a7565b348015610238575f5ffd5b506100a361024736600461153f565b6110f8565b348015610257575f5ffd5b506100a3610266366004611457565b611273565b600160208190525f918252604090912080549181015460028201546003830180546001600160a01b039384169492909316926102a69061177c565b80601f01602080910402602001604051908101604052809291908181526020018280546102d29061177c565b801561031d5780601f106102f45761010080835404028352916020019161031d565b820191905f5260205f20905b81548152906001019060200180831161030057829003601f168201915b5050505050908060040180546103329061177c565b80601f016020809104026020016040519081016040528092919081815260200182805461035e9061177c565b80156103a95780601f10610380576101008083540402835291602001916103a9565b820191905f5260205f20905b81548152906001019060200180831161038c57829003601f168201915b5050505050908060050180546103be9061177c565b80601f01602080910402602001604051908101604052809291908181526020018280546103ea9061177c565b80156104355780601f1061040c57610100808354040283529160200191610435565b820191905f5260205f20905b81548152906001019060200180831161041857829003601f168201915b50505050509080600601805461044a9061177c565b80601f01602080910402602001604051908101604052809291908181526020018280546104769061177c565b80156104c15780601f10610498576101008083540402835291602001916104c1565b820191905f5260205f20905b8154815290600101906020018083116104a457829003601f168201915b5050505050908060070154905088565b6105276040518061010001604052805f81526020015f6001600160a01b031681526020015f6001600160a01b03168152602001606081526020016060815260200160608152602001606081526020015f81525090565b5f82815260016020819052604090912001546001600160a01b03166105865760405162461bcd60e51b815260206004820152601060248201526f149958dbdc99081b9bdd08199bdd5b9960821b60448201526064015b60405180910390fd5b5f8281526001602081815260409283902083516101008101855281548152928101546001600160a01b03908116928401929092526002810154909116928201929092526003820180549192916060840191906105e19061177c565b80601f016020809104026020016040519081016040528092919081815260200182805461060d9061177c565b80156106585780601f1061062f57610100808354040283529160200191610658565b820191905f5260205f20905b81548152906001019060200180831161063b57829003601f168201915b505050505081526020016004820180546106719061177c565b80601f016020809104026020016040519081016040528092919081815260200182805461069d9061177c565b80156106e85780601f106106bf576101008083540402835291602001916106e8565b820191905f5260205f20905b8154815290600101906020018083116106cb57829003601f168201915b505050505081526020016005820180546107019061177c565b80601f016020809104026020016040519081016040528092919081815260200182805461072d9061177c565b80156107785780601f1061074f57610100808354040283529160200191610778565b820191905f5260205f20905b81548152906001019060200180831161075b57829003601f168201915b505050505081526020016006820180546107919061177c565b80601f01602080910402602001604051908101604052809291908181526020018280546107bd9061177c565b80156108085780601f106107df57610100808354040283529160200191610808565b820191905f5260205f20905b8154815290600101906020018083116107eb57829003601f168201915b505050505081526020016007820154815250509050919050565b600260209081525f9283526040808420909152908252902080546108459061177c565b80601f01602080910402602001604051908101604052809291908181526020018280546108719061177c565b80156108bc5780601f10610893576101008083540402835291602001916108bc565b820191905f5260205f20905b81548152906001019060200180831161089f57829003601f168201915b505050505081565b6108cc6112b0565b6108d55f6112dc565b565b335f9081526003602052604090205460ff166109445760405162461bcd60e51b815260206004820152602660248201527f43616c6c6572206973206e6f7420616e206175746f72697a656420696e7374696044820152653a3aba34b7b760d11b606482015260840161057d565b8a8061098b5760405162461bcd60e51b81526020600482015260166024820152752737903932b1b7b93239903a37903932b3b4b9ba32b960511b604482015260640161057d565b808a146109e85760405162461bcd60e51b815260206004820152602560248201527f53747564656e742061646472657373206172726179206c656e677468206d69736044820152640dac2e8c6d60db1b606482015260840161057d565b808814610a435760405162461bcd60e51b8152602060048201526024808201527f456e637279707465642064617461206172726179206c656e677468206d69736d6044820152630c2e8c6d60e31b606482015260840161057d565b808614610a925760405162461bcd60e51b815260206004820181905260248201527f497373756572206b6579206172726179206c656e677468206d69736d61746368604482015260640161057d565b808414610aeb5760405162461bcd60e51b815260206004820152602160248201527f53747564656e74206b6579206172726179206c656e677468206d69736d6174636044820152600d60fb1b606482015260840161057d565b808214610b3a5760405162461bcd60e51b815260206004820152601f60248201527f5369676e6174757265206172726179206c656e677468206d69736d6174636800604482015260640161057d565b5f5b81811015610ef1575f8e8e83818110610b5757610b576117b4565b9050602002013590505f8d8d84818110610b7357610b736117b4565b9050602002016020810190610b889190611457565b5f83815260016020819052604090912001549091506001600160a01b031615610bf35760405162461bcd60e51b815260206004820152601860248201527f5265636f726420494420616c7265616479206578697374730000000000000000604482015260640161057d565b6001600160a01b038116610c495760405162461bcd60e51b815260206004820152601e60248201527f53747564656e7420616464726573732063616e6e6f74206265207a65726f0000604482015260640161057d565b604051806101000160405280838152602001826001600160a01b03168152602001336001600160a01b031681526020018d8d86818110610c8b57610c8b6117b4565b9050602002810190610c9d91906117c8565b8080601f0160208091040260200160405190810160405280939291908181526020018383808284375f920191909152505050908252506020018b8b86818110610ce857610ce86117b4565b9050602002810190610cfa91906117c8565b8080601f0160208091040260200160405190810160405280939291908181526020018383808284375f92019190915250505090825250602001898986818110610d4557610d456117b4565b9050602002810190610d5791906117c8565b8080601f0160208091040260200160405190810160405280939291908181526020018383808284375f92019190915250505090825250602001878786818110610da257610da26117b4565b9050602002810190610db491906117c8565b8080601f0160208091040260200160405190810160405280939291908181526020018383808284375f920182905250938552505042602093840152508481526001808352604091829020845181559284015190830180546001600160a01b03199081166001600160a01b039384161790915591840151600284018054909316911617905560608201516003820190610e4c908261186b565b5060808201516004820190610e61908261186b565b5060a08201516005820190610e76908261186b565b5060c08201516006820190610e8b908261186b565b5060e08201518160070155905050336001600160a01b0316816001600160a01b0316837f0bc83de6d7d14fa770a6af0ead38bb0bc00a5d7a19cb23facf7a572cc587a37242604051610edf91815260200190565b60405180910390a45050600101610b3c565b5050505050505050505050505050565b610f096112b0565b6001600160a01b038116610f2f5760405162461bcd60e51b815260040161057d90611926565b6001600160a01b03165f908152600360205260409020805460ff19169055565b5f84815260016020819052604090912001546001600160a01b03163314610f885760405162461bcd60e51b815260040161057d90611968565b6001600160a01b038316610fde5760405162461bcd60e51b815260206004820152601e60248201527f56697369746f7220616464726573732063616e6e6f74206265207a65726f0000604482015260640161057d565b8061103d5760405162461bcd60e51b815260206004820152602960248201527f456e63727970746564206b657920666f722076697369746f722063616e6e6f7460448201526820626520656d70747960b81b606482015260840161057d565b5f8481526002602090815260408083206001600160a01b038716845290915290206110698284836119b6565b506040516001600160a01b03841690339086907f7aeffe35f64b55a7c424c5fccc3fba0f3ac4ebd764cc737855b8734834458f2b905f90a450505050565b6110af6112b0565b6001600160a01b0381166110d55760405162461bcd60e51b815260040161057d90611926565b6001600160a01b03165f908152600360205260409020805460ff19166001179055565b5f82815260016020819052604090912001546001600160a01b031633146111315760405162461bcd60e51b815260040161057d90611968565b6001600160a01b0381166111875760405162461bcd60e51b815260206004820152601e60248201527f56697369746f7220616464726573732063616e6e6f74206265207a65726f0000604482015260640161057d565b5f8281526002602090815260408083206001600160a01b0385168452909152812080546111b39061177c565b90501161120e5760405162461bcd60e51b815260206004820152602360248201527f56697369746f7220646f6573206e6f742068617665206163746976652061636360448201526265737360e81b606482015260840161057d565b5f8281526002602090815260408083206001600160a01b038516845290915281206112389161132b565b6040516001600160a01b03821690339084907ffab19bdeacf1ea13315b1da3f79a3403fe4f16793b6a03eeff9e0bbbea24fe5f905f90a45050565b61127b6112b0565b6001600160a01b0381166112a457604051631e4fbdf760e01b81525f600482015260240161057d565b6112ad816112dc565b50565b5f546001600160a01b031633146108d55760405163118cdaa760e01b815233600482015260240161057d565b5f80546001600160a01b038381166001600160a01b0319831681178455604051919092169283917f8be0079c531659141344cd1fd0a4f28419497f9722a3daafe3b4186f6b6457e09190a35050565b5080546113379061177c565b5f825580601f10611346575050565b601f0160209004905f5260205f20908101906112ad91905b80821115611371575f815560010161135e565b5090565b5f60208284031215611385575f5ffd5b5035919050565b5f81518084528060208401602086015e5f602082860101526020601f19601f83011685010191505092915050565b8881526001600160a01b03888116602083015287166040820152610100606082018190525f906113ec9083018861138c565b82810360808401526113fe818861138c565b905082810360a0840152611412818761138c565b905082810360c0840152611426818661138c565b9150508260e08301529998505050505050505050565b80356001600160a01b0381168114611452575f5ffd5b919050565b5f60208284031215611467575f5ffd5b6114708261143c565b9392505050565b60208152815160208201525f602083015161149d60408401826001600160a01b03169052565b5060408301516001600160a01b038116606084015250606083015161010060808401526114ce61012084018261138c565b90506080840151601f198483030160a08501526114eb828261138c565b91505060a0840151601f198483030160c0850152611509828261138c565b91505060c0840151601f198483030160e0850152611527828261138c565b91505060e08401516101008401528091505092915050565b5f5f60408385031215611550575f5ffd5b823591506115606020840161143c565b90509250929050565b602081525f611470602083018461138c565b5f5f83601f84011261158b575f5ffd5b50813567ffffffffffffffff8111156115a2575f5ffd5b6020830191508360208260051b85010111156115bc575f5ffd5b9250929050565b5f5f5f5f5f5f5f5f5f5f5f5f60c08d8f0312156115de575f5ffd5b67ffffffffffffffff8d3511156115f3575f5ffd5b6116008e8e358f0161157b565b909c509a5067ffffffffffffffff60208e0135111561161d575f5ffd5b61162d8e60208f01358f0161157b565b909a50985067ffffffffffffffff60408e0135111561164a575f5ffd5b61165a8e60408f01358f0161157b565b909850965067ffffffffffffffff60608e01351115611677575f5ffd5b6116878e60608f01358f0161157b565b909650945067ffffffffffffffff60808e013511156116a4575f5ffd5b6116b48e60808f01358f0161157b565b909450925067ffffffffffffffff60a08e013511156116d1575f5ffd5b6116e18e60a08f01358f0161157b565b81935080925050509295989b509295989b509295989b565b5f5f5f5f6060858703121561170c575f5ffd5b8435935061171c6020860161143c565b9250604085013567ffffffffffffffff811115611737575f5ffd5b8501601f81018713611747575f5ffd5b803567ffffffffffffffff81111561175d575f5ffd5b87602082840101111561176e575f5ffd5b949793965060200194505050565b600181811c9082168061179057607f821691505b6020821081036117ae57634e487b7160e01b5f52602260045260245ffd5b50919050565b634e487b7160e01b5f52603260045260245ffd5b5f5f8335601e198436030181126117dd575f5ffd5b83018035915067ffffffffffffffff8211156117f7575f5ffd5b6020019150368190038213156115bc575f5ffd5b634e487b7160e01b5f52604160045260245ffd5b601f82111561186657805f5260205f20601f840160051c810160208510156118445750805b601f840160051c820191505b81811015611863575f8155600101611850565b50505b505050565b815167ffffffffffffffff8111156118855761188561180b565b61189981611893845461177c565b8461181f565b6020601f8211600181146118cb575f83156118b45750848201515b5f19600385901b1c1916600184901b178455611863565b5f84815260208120601f198516915b828110156118fa57878501518255602094850194600190920191016118da565b508482101561191757868401515f19600387901b60f8161c191681555b50505050600190811b01905550565b60208082526022908201527f496e737469747574696f6e20616464726573732063616e6e6f74206265207a65604082015261726f60f01b606082015260800190565b6020808252602e908201527f43616c6c6572206973206e6f74207468652073747564656e74206f776e65722060408201526d1bd9881d1a1a5cc81c9958dbdc9960921b606082015260800190565b67ffffffffffffffff8311156119ce576119ce61180b565b6119e2836119dc835461177c565b8361181f565b5f601f841160018114611a13575f85156119fc5750838201355b5f19600387901b1c1916600186901b178355611863565b5f83815260208120601f198716915b82811015611a425786850135825560209485019460019092019101611a22565b5086821015611a5e575f1960f88860031b161c19848701351681555b505060018560011b018355505050505056fea2646970667358221220b41819c12735c4c4479cca0c47555cf10d19651b57098cfb2c3066d4a95c10a564736f6c634300081c0033",
  "linkReferences": {},
  "deployedLinkReferences": {},
  "immutableReferences": {},
  "inputSourceName": "project/contracts/AcademicRecordStorage.sol",
  "buildInfoId": "solc-0_8_28-745fb3a1bd9841aed7aec780751b85fb1365a369"
}